:100000000C944C000C9469000C9469000C946900E9
:100010000C9469000C9469000C9469000C946900BC
:100020000C9469000C94890D0C9469000C94C20C1A
:100030000C945C0D0C94020D0C942F0D0C94950CEB
:100040000C9469000C9469000C94420C0C946900A7
:100050000C94C6080C9469000C94A7090C946900D0
:100060000C94E5100C9469000C94020F0C94690038
:100070000C94A1080C9469000C9482090000010002
:1000800008004000000100040000010008002000FA
:10009000400080000001000411241FBECFEFD8E013
:1000A000DEBFCDBF11E0A0E0B1E0EEE6F3E202C0BA
:1000B00005900D92A230B107D9F714E0A2E0B1E0AB
:1000C00001C01D92A735B107E1F70E94E5040C9429
:1000D000B6110C94000093E0899FA001112420E048
:1000E00030E002C02D9A2D98822F90E02F5F3F4F75
:1000F00084179507BCF3089588E892E00E94F10701
:100100000895FF920F931F93CF93DF93F82E8823C8
:1001100029F429982A9A02E518E004C05D985C9AAF
:1001200007E518E0F894C8E8D2E005C0CE010E94C7
:100130005807F8010995CE010E94E607803891051D
:10014000A9F77894FF2031F484E10E946B002A988B
:10015000299A05C084E10E946B005C985D9A0E9418
:100160007C00DF91CF911F910F91FF900895682F30
:1001700088E892E00E94BD0790E00895CF92DF9258
:10018000EF92FF920F931F93CF93DF93D82EF62E0B
:10019000E42EC22EE8010E947C008FEF0E94B7007F
:1001A0008D2D0E94B7008F2D0E94B7008FEFD816BB
:1001B00019F48E2D8E5F01C08E2D0E94B7008C2DFC
:1001C0000E94B7008FEFD81621F46F2D6E5F6E0D71
:1001D00002C06E2D6F0D162F1C0D00E006C0888129
:1001E0000E94B7008991180F0F5F0E15C1F78FEFAE
:1001F000D81619F4812F809501C0812F0E94B70075
:10020000DF91CF911F910F91FF90EF90DF90CF90F2
:10021000089540E850E060E972E088E892E00E94CA
:100220004B070895219A229A2A982998559A549A08
:100230005C985D980E94A60A40E052EC61E070E094
:1002400080E00E94030840E052EC61E070E081E051
:100250000E9403081092C0001092C50082E08093B3
:10026000C4001092C8001092CD008093CC00089575
:100270000D9880B1882319F01092870203C08FEF88
:10028000809387028091870290E008950F931F93D7
:10029000CF93DF93CDB7DEB722970FB6F894DEBFCA
:1002A0000FBECDBF89E1898381E08A838E010F5F14
:1002B0001F4F22E043E061E08FEF0E94BE0080E02C
:1002C0000E94810022960FB6F894DEBF0FBECDBF0C
:1002D000DF91CF911F910F9108950F931F93CF93AB
:1002E000DF93CDB7DEB722970FB6F894DEBF0FBE0F
:1002F000CDBF89E189831A828E010F5F1F4F22E0F3
:1003000043E061E08FEF0E94BE0080E00E94810028
:1003100022960FB6F894DEBF0FBECDBFDF91CF910E
:100320001F910F9108954F925F926F927F928F92DB
:100330009F92AF92BF92CF92DF92EF92FF920F9374
:100340001F93CF93DF93482E162F042F690111C0FE
:1003500060E070E0C6010E94A8078F3F39F461E0B9
:1003600070E0C6010E94A8078D3F48F4C6010E94B4
:100370005807F60184819581892B51F79FC0F601BA
:1003800084819581049708F497C01F3F49F463E086
:1003900070E0C6010E94A8079EEF792E780E06C075
:1003A00063E070E0C6010E94A807782EA72CBB244A
:1003B00095012A5F3F4F213831050CF07AC0F601D4
:1003C000848195818217930708F476C061E070E01C
:1003D000C6010E94A807582E811709F066C062E086
:1003E00070E0C6010E94A807801751F062E070E03B
:1003F000C6010E94A80790910001891709F055C015
:1004000085010B5F1F4FB801C6010E94A807682E27
:1004100062E070E0C6010E94A807F82E63E070E079
:10042000C6010E94A807E82E64E070E0C6010E94A1
:10043000A807EF0CE80EC5E0D0E006C0BE01C6017B
:100440000E94A807E80E21964501C017D107B1F711
:10045000FFEF5F1609F4E0946E1439F5442019F4A7
:10046000CEE1D3E002C0C0EAD3E064E070E0C601B0
:100470000E94A8078883CF57DF4F7882C158D040A9
:1004800000E010E009C00B5F1F4FB801C6010E94D9
:10049000A80788830450104021960815190599F77C
:1004A000C6010E94F1078FEF12C0C6010E945807D3
:1004B00003C0C6010E94F10780E009C0F601248153
:1004C00035818281938128173907B0F3F2CF90E00C
:1004D000DF91CF911F910F91FF90EF90DF90CF9020
:1004E000BF90AF909F908F907F906F905F904F9054
:1004F0000895FF920F931F93CF93DF93182FF62E3B
:10050000042FC0E0D0E001C02196812F0E942B086B
:100510009C01402F6F2D812F0E949301882329F485
:100520008EE4C032D80781F706C0C052DE4418F40A
:100530008FEF90E002C080E090E0DF91CF911F91BB
:100540000F91FF9008950F931F93CF93DF93CDB733
:10055000DEB72A970FB6F894DEBF0FBECDBF88E096
:1005600089831A821B828E010F5F1F4F23E043E0B5
:1005700061E08FEF0E94BE0080E00E94810041E0B8
:100580006FEF80E00E94790290E02A960FB6F8940F
:10059000DEBF0FBECDBFDF91CF911F910F910895A8
:1005A0000F931F93CF93DF93CDB7DEB72A970FB684
:1005B000F894DEBF0FBECDBF9C0180709C7F892B5D
:1005C00019F080E090E01DC080E289832A83832FA8
:1005D0009927282F8B83662311F024602B838E01AB
:1005E0000F5F1F4F23E043E061E08FEF0E94BE00EA
:1005F00080E00E94810041E06FEF80E00E9479027C
:1006000090E02A960FB6F894DEBF0FBECDBFDF9103
:10061000CF911F910F910895EF92FF920F931F9327
:10062000CF93DF93CDB7DEB72A970FB6F894DEBF2E
:100630000FBECDBF7C0184E2898382E08A838E0174
:100640000F5F1F4F22E042E061E08FEF0E94BE008B
:1006500080E00E94810000E010E002C00F5F1F4FA9
:1006600080E00E942B089C0141E06FEF80E00E9437
:100670009301882329F48EE40032180779F717C014
:1006800000521E44A0F480919F03823081F4809137
:10069000200390E0982F882720911F0330E0822BC1
:1006A000932BF701918380838FEF90E002C080E06D
:1006B00090E02A960FB6F894DEBF0FBECDBFDF9153
:1006C000CF911F910F91FF90EF900895EF92FF92BD
:1006D0000F931F93CF93DF93CDB7DEB72A970FB653
:1006E000F894DEBF0FBECDBF7C018E010F5F1F4FA0
:1006F00024E140E0609119038DEF0E94BE0080E08C
:100700000E94810000E010E002C00F5F1F4F80E0F8
:100710000E942B089C01409119036DEF80E00E941C
:100720009301882329F487E20031180771F717C075
:1007300000511742A0F480911E03843181F480910E
:10074000200390E0982F882720911F0330E0822B10
:10075000932BF701918380838FEF90E002C080E0BC
:1007600090E02A960FB6F894DEBF0FBECDBFDF91A2
:10077000CF911F910F91FF90EF900895CF93DF934A
:100780000E943801882381F0C1E8D2E0CE010E94A6
:100790000C038823D9F3209181023091820281E0F9
:1007A0002F3F3807F0F0BBC0C0E1D3E0CE010E947C
:1007B00066038823D9F320911003309111038091AF
:1007C00012039091130328173907C8F0C1E8D2E04B
:1007D000CE010E940C038823D9F32091810230912D
:1007E00082028FEF91E0821B930B62E370E00E9424
:1007F0003411F901EF5EF34FE60FF71F9CC08091B3
:100800008302909184028217930788F4281B390B86
:10081000F901EE0FFF1FE20FF31FC90163E070E063
:100820000E943411E60FF71FED5AF44F67C0809114
:1008300017039091180328173907A8F0C1E8D2E0F0
:10084000CE010E940C038823D9F3209181023091BC
:100850008202C901019762E370E00E943411F9013C
:10086000E459F84FC9CF8091850290918602821792
:10087000930788F4281B390BF901EE0FFF1FE20FD5
:10088000F31FC90163E070E00E943411E60FF71F07
:10089000ED55F94F33C080911C0390911D0328172B
:1008A0003907A8F0C1E8D2E0CE010E940C038823EA
:1008B000D9F32091810230918202C901019762E34C
:1008C00070E00E943411F901E454FD4F95CF8091FE
:1008D00014039091150382179307B0F4281B390B6A
:1008E000F901EE0FFF1FE20FF31FC90163E070E093
:1008F0000E943411E60FF71FED50FE4FC90168E763
:1009000070E00E94341178CFC1E8D2E0CE010E949D
:100910000C038823D9F32091810230918202C9010E
:100920008F5F914062E370E00E943411F901E61B91
:10093000F70BEF5FF140CF01DF91CF910895CF9397
:10094000DF93CDB7DEB724970FB6F894DEBF0FBEA6
:10095000CDBF92EA99836A834B832C83AE014F5FAC
:100960005F4F64E00E94DD0E24960FB6F894DEBF60
:100970000FBECDBFDF91CF910895CF93DF93CDB759
:10098000DEB72A970FB6F894DEBF0FBECDBF90E852
:10099000998391E89A8395E09B836C834D832E83A2
:1009A0001F829FEF988719869AEA9A87AE014F5F58
:1009B0005F4F6AE00E94DD0E2A960FB6F894DEBF04
:1009C0000FBECDBFDF91CF9108950E9412015D9AB5
:1009D0005C98299A2A980E9409010E94B60D0E94EB
:1009E000F4100E94000E21E041E061E080EC0E94E2
:1009F000BD0421E041E061E084EC0E94BD0421E0FF
:100A000041E061E082EC0E94BD04F999FECF81E0F3
:100A100090E0ACE0B0E00C010E949D11F999FECF8E
:100A2000ACE0B0E00E949811E09319038FB390E01E
:100A3000DC01A270B07081FDF9CF0E949811F09393
:100A40001303E0931203F999FECFA2E0B0E00E94F5
:100A50009811F0938402E0938302F999FECFA4E009
:100A6000B0E00E949811F0931803E0931703F999EE
:100A7000FECFA6E0B0E00E949811F0938602E093CA
:100A80008502F999FECFA8E0B0E00E949811F0939A
:100A90001D03E0931C03F999FECFAAE0B0E00E9489
:100AA0009811F0931503E09314038EEF80931603CF
:100AB000FFCF4F925F926F927F928F929F92AF92F1
:100AC000BF92CF92DF92EF92FF920F931F93CF933B
:100AD000DF93CDB7DEB722970FB6F894DEBF0FBE17
:100AE000CDBF0E94A3028823E1F360E084EF91E090
:100AF0000E94D0028823C9F30E9438018823E1F3C1
:100B000061E084EF91E00E94D0028823C9F301E8FC
:100B100012E0C8010E940C038823D9F3C8010E9487
:100B20000C03882339F080918102909182028135F3
:100B3000910578F761E084E690E00E94D002882376
:100B4000C9F301E812E0C8010E940C038823D9F31D
:100B5000C8010E940C03882331F08091810290919A
:100B60008202059780F78E010F5F1F4FC8010E9418
:100B700066038823D9F389809A808AEBE82E8FEF69
:100B8000F82EE80CF91C61E084EF91E00E94D0029D
:100B90008823C9F38E010F5F1F4FC8010E946603AF
:100BA0008823D9F3C8010E946603882329F089812C
:100BB0009A81E816F90688F360E084E690E00E94E6
:100BC000D0028823C9F301E812E0C8010E940C0397
:100BD0008823D9F3C8010E940C03882339F080913F
:100BE0008102909182028B5F934078F38E010F5FB8
:100BF0001F4FC8010E9466038823D9F349805A8099
:100C000061E084EF91E00E94D0028823C9F301E8FB
:100C100012E0C8010E940C038823D9F3C8010E9486
:100C20000C03882339F080918102909182028135F2
:100C3000910578F761E084E690E00E94D002882375
:100C4000C9F301E812E0C8010E940C038823D9F31C
:100C5000C8010E940C03882331F080918102909199
:100C60008202059780F78E010F5F1F4FC8010E9417
:100C700066038823D9F3A980BA800AEBE02E0FEF30
:100C8000F02EEA0CFB1C61E084EF91E00E94D002A0
:100C90008823C9F38E010F5F1F4FC8010E946603AE
:100CA0008823D9F3C8010E946603882329F089812B
:100CB0009A81E816F90688F360E084E690E00E94E5
:100CC000D0028823C9F301E812E0C8010E940C0396
:100CD0008823D9F3C8010E940C03882339F080913E
:100CE0008102909182028B5F934078F38E010F5FB7
:100CF0001F4FC8010E9466038823D9F369807A8058
:100D000061E084EF91E00E94D0028823C9F301E8FA
:100D100012E0C8010E940C038823D9F3C8010E9485
:100D20000C03882339F080918102909182028135F1
:100D3000910578F761E084E690E00E94D002882374
:100D4000C9F301E812E0C8010E940C038823D9F31B
:100D5000C8010E940C03882331F080918102909198
:100D60008202059780F78E010F5F1F4FC8010E9416
:100D700066038823D9F3E980FA801AEBC12E1FEFAE
:100D8000D12ECE0CDF1C61E084EF91E00E94D002F6
:100D90008823C9F38E010F5F1F4FC8010E946603AD
:100DA0008823D9F3C8010E946603882329F089812A
:100DB0009A81C816D90688F360E084E690E00E9424
:100DC000D0028823C9F301E812E0C8010E940C0395
:100DD0008823D9F3C8010E940C03882339F080913D
:100DE0008102909182028B5F934078F38E010F5FB6
:100DF0001F4FC8010E9466038823D9F329813A81D5
:100E00008FB390E0DC01A270B07081FDF9CF0401D6
:100E10000E949D11F999FECFA2E0B0E002010E946C
:100E20009D11F999FECFA4E0B0E005010E949D114B
:100E3000F999FECFA6E0B0E003010E949D11F99957
:100E4000FECFA8E0B0E007010E949D11F999FECF06
:100E5000AAE0B0E009010E949D1160E080E090E00E
:100E60000E94D0028823C9F322960FB6F894DEBF01
:100E70000FBECDBFDF91CF911F910F91FF90EF90EB
:100E8000DF90CF90BF90AF909F908F907F906F90AA
:100E90005F904F900895FC018FB7F8947183608341
:100EA0005383428317821682158214828FBF08955E
:100EB000CF93DF93DC014FB7F894EC018C819D81D7
:100EC000892B11F4E0E01CC0FD0186819781ED9132
:100ED000FC911197E80FF91FE0810196ED019F83C6
:100EE0008E832A813B818217930720F0821B930B0C
:100EF0009F838E83ED018C819D8101979D838C83DF
:100F00004FBF8E2F90E0DF91CF910895FC014FB736
:100F1000F8948481958168177907B0F48681978168
:100F2000860F971F978386832281338182179307C9
:100F300020F0821B930B9783868384819581861B87
:100F4000970B9583848302C0158214824FBF089546
:100F5000FC01CB014FB7F894268137816281738100
:100F6000820F931F0E9434110190F081E02DE80F51
:100F7000F91F80814FBF90E008951F93CF93DF93B7
:100F8000EC01162F4FB7F8942C813D816A817B814B
:100F900026173707A0F48E819F81820F931F0E942E
:100FA0003411E881F981E80FF91F10838C819D814C
:100FB00001969D838C834FBF8FEF90E003C04FBF9E
:100FC00080E090E0DF91CF911F910895FC018FB7F1
:100FD000F8948FBF8281938124813581821B930B8A
:100FE0000895FC018FB7F894158214828FBF08957D
:100FF000823040F4E82FF0E0EE0FFF1FEE5DFD4F72
:101000007183608308951F93182FCB01BA01F3E019
:10101000660F771F881F991FFA95D1F79B01AC01C6
:10102000220F331F441F551F60507C4D8B409F4F34
:101030000E945B1121503040832F9927112329F002
:101040002093CC008093CD0004C02093C4008093F3
:10105000C5001F91089590E0A3E0880F991FAA95FD
:10106000E1F78C5D9B4F089590E0B3E0880F991FE6
:10107000BA95E1F78A5C9B4F0895E82F882339F0F1
:101080008091C80085FFFCCF6093CE0006C08091A0
:10109000C00085FFFCCF6093C600F0E0EE5DFB4F23
:1010A00010820895682F80E00E943D080895682FFF
:1010B00081E00E943D08089520E030E0E82FF0E054
:1010C00083E0EE0FFF1F8A95E1F7EC5DFB4F848113
:1010D0009581892B11F421E030E0C9010895CF9367
:1010E000DF93882319F06091CE0002C06091C600A2
:1010F000282F30E0E901CC0FDD1FFE01EE5DFD4F32
:1011000080819181892B31F00190F081E02D862F33
:10111000099514C093E0220F331F9A95E1F7C90196
:101120008C5D9B4F0E94BD07882341F4FE01EA5B62
:10113000FB4F80819181019691838083DF91CF91D4
:1011400008951F920F920FB60F9211242F933F9381
:101150004F935F936F937F938F939F93AF93BF93BF
:10116000EF93FF9381E00E946F08FF91EF91BF9191
:10117000AF919F918F917F916F915F914F913F912F
:101180002F910F900FBE0F901F9018951F920F92E6
:101190000FB60F9211242F933F934F935F936F934A
:1011A0007F938F939F93AF93BF93EF93FF9380E0D1
:1011B0000E946F08FF91EF91BF91AF919F918F9126
:1011C0007F916F915F914F913F912F910F900FBE43
:1011D0000F901F9018958F929F92AF92BF92CF92CF
:1011E000DF92EF92FF920F931F93CF93DF93882E9E
:1011F0005B016A01E82EFF24E70153E0CC0FDD1FFD
:101200005A95E1F7CA5CDB4F8C819D818C0D9D1D49
:101210002A813B818217930710F5C114D104F9F09C
:10122000FB01908000E010E007C0F501E00FF11F26
:101230006081CE010E94BD070F5F1F4F0C151D0579
:10124000A1F784E394E0E80EF91E8FEFF7018083A5
:10125000692D882D0E943D088FEF90E002C080E04C
:1012600090E0DF91CF911F910F91FF90EF90DF9071
:10127000CF90BF90AF909F908F90089590E073E0D3
:10128000880F991F7A95E1F78A5C9B4F0E94BD07F2
:101290000895682F81E00E943E090895682F80E03C
:1012A0000E943E090895CF93DF93282FA82FB0E026
:1012B000ED01CC5CDB4F88818823E9F0FD0183E000
:1012C000EE0FFF1F8A95E1F7EA5CFB4F8481958161
:1012D000892B81F0222339F08EE394E00E94580795
:1012E0008093CE000CC086E394E00E945807809360
:1012F000C60005C01882AE5DBB4F8FEF8C93DF91A7
:10130000CF9108951F920F920FB60F9211242F9331
:101310003F934F935F936F937F938F939F93AF937D
:10132000BF93EF93FF9381E00E945309FF91EF91E8
:10133000BF91AF919F918F917F916F915F914F91ED
:101340003F912F910F900FBE0F901F9018951F92F5
:101350000F920FB60F9211242F933F934F935F93E9
:101360006F937F938F939F93AF93BF93EF93FF936D
:1013700080E00E945309FF91EF91BF91AF919F913F
:101380008F917F916F915F914F913F912F910F902E
:101390000FBE0F901F9018951F93182F90E0FC011F
:1013A000EC5CFB4F2FEF208323E0880F991F2A95D9
:1013B000E1F78A5C9B4F0E945807682F812F0E949B
:1013C0003D081F910895CF93DF93EB01E82FF0E0E4
:1013D00033E0EE0FFF1F3A95E1F7EC5DFB4F8281A2
:1013E0009381892B59F084819581892B39F0CF0124
:1013F0000E94580788838FEF90E002C080E090E061
:10140000DF91CF910895CF93DF93CDB7DEB72197CA
:101410000FB6F894DEBF0FBECDBFBE016F5F7F4F2A
:1014200081E00E94E309882319F48FEF9FEF02C047
:10143000898190E021960FB6F894DEBF0FBECDBF34
:10144000DF91CF910895CF93DF93CDB7DEB721978A
:101450000FB6F894DEBF0FBECDBFBE016F5F7F4FEA
:1014600080E00E94E309882319F48FEF9FEF02C008
:10147000898190E021960FB6F894DEBF0FBECDBFF4
:10148000DF91CF91089590E043E0880F991F4A952E
:10149000E1F78C5D9B4F0E94F107089540E850E012
:1014A00062E971E08CE294E00E944B0740E150E079
:1014B00062E172E08EE394E00E944B0708950E947F
:1014C0004E0A109225021092240288ED8093C900E2
:1014D00040E855E260E070E081E00E9403088FEF91
:1014E000809323041092350410924904109248040A
:1014F0007894089540E850E062E071E084E294E07E
:101500000E944B0740E150E062E871E086E394E01E
:101510000E944B0708950E947A0A109223021092AB
:10152000220288ED8093C10040E855E260E070E05F
:1015300080E00E9403088FEF80932204109234040D
:101540001092470410924604789408950E948B0AE2
:101550000E945F0A0895089585B5887F826085BDE1
:1015600016BCEEE6F0E080818160808310924A0430
:1015700010924B0410924C0410924D040895E1E82F
:10158000F0E08081887F83608083109285001092D4
:101590008400EFE6F0E08081816080830895E1EBD4
:1015A000F0E08081887F846080831092B200E0E761
:1015B000F0E0808181608083109252041092530485
:1015C0001092540410925504089595B5987F982B65
:1015D00095BD0895E1E8F0E09081987F982B908385
:1015E0000895E1EBF0E09081987F982B9083089527
:1015F000E5B5F0E0E770F070EE0FFF1FE458FF4F25
:10160000859194910895E0918100F0E0E770F07089
:10161000EE0FFF1FE458FF4F859194910895E091DC
:10162000B100F0E0E770F070EE0FFF1FE458FF4FDD
:10163000859194910895873040F4E82FF0E0EE0F03
:10164000FF1FEA5DFD4F718360830895873040F48A
:10165000E82FF0E0EE0FFF1FEA5DFD4F11821082D0
:101660000895EF92FF920F931F93CF93DF93EC01B6
:1016700016B510924E0410924F041092500410921E
:1016800051040E94F80A9C0140E050E060E074E2DE
:1016900084EF90E00E947D11CA01B901693B2DE8F9
:1016A000720726E0820720E0920780F427E2C1312A
:1016B000D20760F49E0140E050E00E94151128EE30
:1016C00033E040E050E00E945B1123C028EE33E09D
:1016D00040E050E00E945B11CA01B9019E0140E068
:1016E00050E00E9415119B01AC0113C080914E0483
:1016F00090914F04A0915004B091510483B7817F21
:1017000083BF83B7816083BF889583B78E7F83BF94
:1017100006C0210F311D411D511D79018A01209103
:101720004E0430914F04409150045091510486B5BD
:1017300090E0A0E0B0E0542F432F322F2227822BDD
:10174000932BA42BB52B8E159F05A007B10770F224
:10175000DF91CF911F910F91FF90EF90089510921C
:101760004A0410924B0410924C0410924D040895B8
:1017700060914A0470914B0480914C0490914D0407
:10178000089510925204109253041092540410922F
:10179000550408956091520470915304809154044B
:1017A000909155040895893049F4809180008260B9
:1017B00080938000809180008E7F0EC08A3021F45B
:1017C00080918000826003C0809180008D7F809333
:1017D0008000809180008160809380001092890059
:1017E0001092880010928B0010928A000895E0E811
:1017F000F0E020812E7F2083208122602083E1E899
:10180000F0E0208128602083208120612083909354
:1018100087008093860010928900109288001092B1
:101820008B0010928A000895E0E8F0E080818068E3
:10183000808380818F7B80830895E0E8F0E0808161
:101840008062808380818F7E80830895E0E8F0E06D
:1018500080818F77808380818F7B80830895E0E80B
:10186000F0E080818F7D808380818F7E80830895EA
:101870009093890080938800089590938B008093C3
:101880008A0008951F920F920FB60F9211242F9382
:101890003F934F935F936F937F938F939F93AF93F8
:1018A000BF93EF93FF9380914A0490914B04A091D2
:1018B0004C04B0914D040196A11DB11D80934A04C2
:1018C00090934B04A0934C04B0934D0480914E042C
:1018D00090914F04A0915004B09151040196A11D24
:1018E000B11D80934E0490934F04A0935004B09385
:1018F00051048091260290912702892B29F0E091D2
:101900002602F09127020995FF91EF91BF91AF91C7
:101910009F918F917F916F915F914F913F912F9107
:101920000F900FBE0F901F9018951F920F920FB639
:101930000F9211242F933F934F935F936F937F9355
:101940008F939F93AF93BF93EF93FF938091280260
:1019500090912902892B29F0E0912802F091290227
:101960000995FF91EF91BF91AF919F918F917F91D9
:101970006F915F914F913F912F910F900FBE0F90FC
:101980001F9018951F920F920FB60F9211242F934C
:101990003F934F935F936F937F938F939F93AF93F7
:1019A000BF93EF93FF938091520490915304A091C1
:1019B0005404B09155040196A11DB11D80935204A9
:1019C00090935304A0935404B09355048091300233
:1019D00090913102892B29F0E0913002F09131028F
:1019E0000995FF91EF91BF91AF919F918F917F9159
:1019F0006F915F914F913F912F910F900FBE0F907C
:101A00001F9018951F920F920FB60F9211242F93CB
:101A10003F934F935F936F937F938F939F93AF9376
:101A2000BF93EF93FF9380912A0290912B02892B11
:101A300029F0E0912A02F0912B020995FF91EF9194
:101A4000BF91AF919F918F917F916F915F914F91D6
:101A50003F912F910F900FBE0F901F9018951F92DE
:101A60000F920FB60F9211242F933F934F935F93D2
:101A70006F937F938F939F93AF93BF93EF93FF9356
:101A800080912C0290912D02892B29F0E0912C025B
:101A9000F0912D020995FF91EF91BF91AF919F9128
:101AA0008F917F916F915F914F913F912F910F9007
:101AB0000FBE0F901F9018951F920F920FB60F92A6
:101AC00011242F933F934F935F936F937F938F9343
:101AD0009F93AF93BF93EF93FF9380912E029091CA
:101AE0002F02892B29F0E0912E02F0912F02099507
:101AF000FF91EF91BF91AF919F918F917F916F91E6
:101B00005F914F913F912F910F900FBE0F901F90BB
:101B100018951F920F920FB60F9211242F933F9397
:101B20004F935F936F937F938F939F93AF93BF93E5
:101B3000EF93FF938091320290913302892B29F029
:101B4000E0913202F09133020995FF91EF91BF913C
:101B5000AF919F918F917F916F915F914F913F9145
:101B60002F910F900FBE0F901F90189580E090E07E
:101B7000FC01EE0FFF1FEA5DFD4F118210820196FE
:101B800087309105A9F70E94AC0A0E94BF0A0E9403
:101B9000CF0A78940895E0E8F0E080818D7F80831B
:101BA00080818E7F808380818F77808380818F7B0F
:101BB000808380818F7D808380818F7E8083089564
:101BC0002091B9002E7F2093B9002091B9002D7F7C
:101BD0002093B9009C0140E050E060E87EE380E0A3
:101BE00090E00E947D11203140F0822F90E04097DC
:101BF00062E070E00E944811262F2093B8000895FB
:101C0000409A419A589A599A10927C0210927B02FB
:101C100010927E0210927D0284E690E00E94E00D18
:101C2000ECEBF0E0808184608083109235021092AA
:101C30003402808181608083808180648083789495
:101C4000089590E0611191E08E7F982B9093BA00F7
:101C5000089590937C0280937B02089590937E0276
:101C600080937D020895ECEBF0E080818F70806AB4
:101C700080830895ECEBF0E080818F70806D80832D
:101C800008958091BC0087FFFCCF08958093BB002E
:101C9000ECEBF0E080818F7080688083089588236A
:101CA00029F08091BC008F70806C04C08091BC00D2
:101CB0008F7080688093BC0008958091BB0090E095
:101CC00008958091B90090E0089580913402909138
:101CD00035020895982FFA018091BC008E7F809381
:101CE000BC008091BC008F70806A8093BC008091A2
:101CF000BC0087FFFCCF9E7F9093BB008091BC000F
:101D00008F7080688093BC008091BC0087FFFCCFFF
:101D10008091B900883189F091E012C08081809370
:101D2000BB008091BC008F7080688093BC00809164
:101D3000BC0087FFFCCF31966150662379F790E0B5
:101D40008091BC008F70806D8093BC008091BC003E
:101D500084FFFCCF8091BC0081608093BC00892F00
:101D600090E00895282FDA01809134029091350295
:101D7000892BD1F783E090E0909335028093340271
:101D80002160209336021092790260937A0280914A
:101D9000BC008F70806A8093BC0080913402909167
:101DA0003502892BD1F7E9E5F2E090E003C081919B
:101DB0008D939F5F9617D9F70895282FFA01809188
:101DC000340290913502892BD1F782E090E0909314
:101DD0003502809334022E7F20933602A7E3B2E0CF
:101DE00090E003C081918D939F5F9617D9F7109271
:101DF0005702609358028091BC008F70806A809374
:101E0000BC0008951F920F920FB60F9211242F93CA
:101E10003F934F935F936F937F938F939F93AF9372
:101E2000BF93EF93FF938091B900887F803609F4C8
:101E30009FC0813670F5883209F45FC0893298F40A
:101E4000803109F457C0813138F4882309F4F5C092
:101E5000883009F0FCC04EC0883109F44EC0803291
:101E600009F0F5C0EAC0803409F477C0813438F451
:101E7000803309F4E2C0883309F0E9C05DC08035E1
:101E800009F45FC0883509F44AC0883409F0DFC01E
:101E9000D4C0883909F485C08939B0F4883709F489
:101EA00067C0893738F4883609F462C0803709F092
:101EB000CEC05EC0883809F474C0803909F461C0AE
:101EC000803809F0C4C05DC0803B09F481C0813B0B
:101ED00038F4803A09F469C0883A09F0B8C078C08B
:101EE000803C09F4A5C0883C09F4A2C0883B09F0F5
:101EF000AEC082C0809136020FC09091570280918F
:101F00005802981708F099C0E92FF0E0E95CFD4FFE
:101F100080819F5F909357028093BB0082C0809125
:101F200079029091BB00E82FF0E0E75AFD4F9083D3
:101F30008F5F8093790281C08091BC008F70806830
:101F400080C0809179029091BB00E82FF0E0E75AC1
:101F5000FD4F90838F5F809379022091790230E06A
:101F600080917A0290E0019728173907C4F019C0D0
:101F700085E090E0909335028093340210927902CC
:101F80004BC0809179029091BB00E82FF0E0E75AB6
:101F9000FD4F90838F5F80937902803210F48FEF32
:101FA00001C080E00E944F0E52C08091BC008F7033
:101FB000806C8093BC00E0917B02F0917C023097B2
:101FC00009F441C069E572E08091790209953BC04E
:101FD00084E090E09093350280933402E0917D029A
:101FE000F0917E02309731F067E372E080E209956C
:101FF000809358021092570290915702E92FF0E017
:10200000E95CFD4F80818093BB009F5F90935702F6
:1020100080915802981728F48091BC008F70806CD2
:1020200004C08091BC008F7080688093BC000FC09A
:102030008091BC008F70806C04C08091BC008F7058
:10204000806D8093BC001092350210923402FF9193
:10205000EF91BF91AF919F918F917F916F915F9120
:102060004F913F912F910F900FBE0F901F90189599
:102070001F93CF93DF93982F162FEA018091BC0016
:102080008E7F8093BC008091BC008F70806A8093AB
:10209000BC008091BC0087FFFCCF91609093BB0097
:1020A0008091BC008F7080688093BC008091BC00E0
:1020B00087FFFCCF8091B900803469F091E018C0AF
:1020C0008FEF0E944F0E8091BC0087FFFCCF809164
:1020D000BB0089931150123098F780E00E944F0E98
:1020E0008091BC0087FFFCCF8091BB00888390E08B
:1020F0008091BC008F70806D8093BC008091BC008B
:1021000081608093BC00892F90E0DF91CF911F9177
:102110000895EAE7F0E08081877F808380818F7770
:1021200080830895EAE7F0E09081987F982B908370
:102130000895ECE7F0E090818295880F880F807C0D
:102140009F73982B90830895ECE7F0E090818F7156
:10215000907E892B80830895EAE7F0E0808180619A
:102160008083808180648083089580917A0090E0EC
:102170008074907008951092560490917C008F7135
:10218000907E892B80937C0080917A00806180937F
:102190007A0080917A00806480937A0080917A003E
:1021A00086FDFCCF209178008091790090E0982FF7
:1021B000882730E0822B932B08950E94BB109695C0
:1021C00087959695879590E008951F920F920FB688
:1021D0000F9211248F938FEF809356048F910F905D
:1021E0000FBE0F901F9018950F931F930AE710E0F2
:1021F000F80180818068808380818F7D80838081E9
:10220000887F8660808381E00E949910ECE7F0E08F
:1022100080818F7D8083F801808188608083109227
:10222000560478941F910F910895629FD001739F77
:10223000F001829FE00DF11D649FE00DF11D929F62
:10224000F00D839FF00D749FF00D659FF00D9927A1
:10225000729FB00DE11DF91F639FB00DE11DF91FC5
:10226000BD01CF0111240895AA1BBB1B51E107C07A
:10227000AA1FBB1FA617B70710F0A61BB70B881F16
:10228000991F5A95A9F780959095BC01CD010895A5
:1022900097FB092E07260AD077FD04D0E5DF06D08C
:1022A00000201AF4709561957F4F0895F6F7909588
:1022B00081959F4F0895A1E21A2EAA1BBB1BFD0119
:1022C0000DC0AA1FBB1FEE1FFF1FA217B307E40715
:1022D000F50720F0A21BB30BE40BF50B661F771F6D
:1022E000881F991F1A9469F760957095809590954D
:1022F0009B01AC01BD01CF01089597FB092E052676
:102300000ED057FD04D0D7DF0AD0001C38F450950A
:102310004095309521953F4F4F4F5F4F0895F6F709
:1023200090958095709561957F4F8F4F9F4F089541
:1023300009D0E02D07D0F02D08950CD0012C0AD043
:1023400011240895F999FECFB2BDA1BDF89A119656
:1023500000B40895F999FECFB2BDA1BD00BC11969D
:0E2360000FB6F894FA9AF99A0FBE0895FFCFBF
:02236E00FE006F
:00000001FF
