:100000000C944C000C9469000C9469000C946900E9
:100010000C9469000C9469000C9469000C946900BC
:100020000C9469000C94E60D0C9469000C941F0D5F
:100030000C94B90D0C945F0D0C948C0D0C94F20C77
:100040000C9469000C9469000C949F0C0C9469004A
:100050000C9424090C9469000C94040A0C94690013
:100060000C9442110C9469000C945F0F0C9469007D
:100070000C94FF080C9469000C94DF090000010047
:1000800008004000000100040000010008002000FA
:10009000400080000001000411241FBECFEFD8E013
:1000A000DEBFCDBF11E0A0E0B1E0E8E2F4E202C0C3
:1000B00005900D92A030B107D9F714E0A0E0B1E0AF
:1000C00001C01D92A236B107E1F70E940D040C9405
:1000D00013120C94000093E0899FA001112420E0EA
:1000E00030E002C02D9A2D98822F90E02F5F3F4F75
:1000F00084179507BCF308958AE892E00E943C08B3
:100100000895EF92FF920F931F93CF93DF93E82E02
:10011000882329F429982A9A0DE918E004C05D98EB
:100120005C9A02EA18E0FFB6F894CAE8D2E005C08B
:10013000CE010E94A307F8010995CE010E94310863
:1001400080389105A9F7FFBEEE2031F484E10E94CA
:100150006B002A98299A05C084E10E946B005C9884
:100160005D9A0E947C00DF91CF911F910F91FF90CB
:10017000EF900895682F8AE892E00E94080890E0C6
:100180000895CF92DF92EF92FF920F931F93CF9338
:10019000DF93D82EF62EE42EC22EE8010E947C00BA
:1001A0008FEF0E94BA008D2D0E94BA008F2D0E9401
:1001B000BA008FEFD81619F48E2D8E5F01C08E2DE8
:1001C0000E94BA008C2D0E94BA008FEFD81621F43D
:1001D0006F2D6E5F6E0D02C06E2D6F0D162F1C0DF4
:1001E00000E006C088810E94BA008991180F0F5F55
:1001F0000E15C1F78FEFD81619F4812F809501C025
:10020000812F0E94BA00DF91CF911F910F91FF9033
:10021000EF90DF90CF90089540E850E062E972E0FF
:100220008AE892E00E9496070895219A229A2A98D5
:100230002998559A549A5C985D980E94030B40E067
:1002400052EC61E070E080E00E944E0840E052EC29
:1002500061E070E081E00E944E081092C0001092B0
:10026000C50082E08093C4001092C8001092CD00B7
:100270008093CC000895B82FFB0160E070E0A0E00F
:1002800012C0CA01022E02C0959587950A94E2F722
:1002900081709070680F791F2F5F3F4F28303105B4
:1002A00081F7AF5F3196AB1731F08081482F50E076
:1002B00020E030E0E6CFCB01089581B1887381B9A9
:1002C00082B1887382B92098289887B1837387B9DF
:1002D00088B1837388B98AB18F738AB98BB18F73F0
:1002E0008BB91092120308958FEF80930001089547
:1002F000BF92CF92DF92EF92FF920F931F93CF9313
:10030000DF93CDB7DEB727970FB6F894DEBF0FBEE9
:10031000CDBF94ECC92ED12CF601108283E090E081
:100320000E948E0B84E0898385E0B82EBA827E011C
:100330000894E11CF11C870123E042E061E08FEFAB
:100340000E94C10080E00E94810083E090E00E9452
:100350008E0B23E042E061E08FEF0E94C10080E05D
:100360000E94810083E090E00E948E0B23E042E037
:1003700061E08FEF0E94C10080E00E94810082E076
:10038000F601808383E090E00E948E0BB9821A828E
:1003900023E042E061E08FEF0E94C10080E00E9414
:1003A000810083E090E00E948E0B23E042E061E058
:1003B0008FEF0E94C10080E00E94810083E090E006
:1003C0000E948E0B23E042E061E08FEF0E94C100AB
:1003D00080E00E94810083E090E00E948E0B2796CF
:1003E0000FB6F894DEBF0FBECDBFDF91CF911F9146
:1003F0000F91FF90EF90DF90CF90BF9008954F92B4
:100400005F926F927F928F929F92AF92BF92CF92A4
:10041000DF92EF92FF920F931F93CF93DF93482EBB
:10042000862EF42EE90118C060E070E0CE010E9433
:10043000F3078F3F71F461E070E0CE010E94F30793
:10044000881579F061E070E0CE010E94F3078E3FDD
:1004500041F0CE010E94A3078C819D81892B21F759
:10046000B9C08C819D81049708F4B2C08FEF8816C3
:1004700049F463E070E0CE010E94F3074EEF942E42
:10048000980E06C063E070E0CE010E94F307982E3C
:10049000092D10E098012A5F3F4F213831050CF0FB
:1004A00094C08C819D818217930708F491C061E00C
:1004B00070E0CE010E94F307881539F462E070E025
:1004C000CE010E94F3078F1541F061E070E0CE018C
:1004D0000E94F3078E3F09F074C00B5F1F4FB801F5
:1004E000CE010E94F307582E62E070E0CE010E9418
:1004F000F307182F63E070E0CE010E94F307082F86
:1005000064E070E0CE010E94F307010F080F35E0B0
:10051000E32EF12CC92CDD2425E0A22EB12CAC0C4D
:10052000BD1C08C0B701CE010E94F307080F089454
:10053000E11CF11C3601EA14FB04A1F79FEF8916B8
:1005400009F400955016E9F5442019F401E213E08E
:1005500002C009EA13E062E070E0CE010E94F307F6
:10056000F801808361E070E0CE010E94F307F8019A
:10057000818364E070E0CE010E94F307F80182837A
:100580000D571F4FF801908203581040EE24FF24AE
:100590000EC085E090E0E80EF91EB701CE010E9482
:1005A000F307F80182838CEF9FEFE80EF91E0F5FCF
:1005B0001F4FE614F70469F7CE010E943C088FEF45
:1005C00011C0CE010E94A30703C0CE010E943C08C7
:1005D00080E008C02C813D818A819B8128173907E2
:1005E000B8F3F3CF90E0DF91CF911F910F91FF907F
:1005F000EF90DF90CF90BF90AF909F908F907F90C3
:100600006F905F904F900895EF92FF920F931F931A
:10061000CF93DF93CDB7DEB72A970FB6F894DEBF3E
:100620000FBECDBF7C0184E2898382E08A838E0184
:100630000F5F1F4F22E042E061E08FEF0E94C10098
:1006400080E00E94810000E010E002C00F5F1F4FB9
:1006500080E00E9476089C0141E06FEF80E00E94FC
:10066000FF01882329F48EE40032180779F71BC0B4
:1006700000521E44C0F48091A4038230A1F4809102
:100680002303882381F48091250390E0982F882705
:100690002091240330E0822B932BF70191838083F8
:1006A0008FEF90E002C080E090E02A960FB6F894B9
:1006B000DEBF0FBECDBFDF91CF911F910F91FF9095
:1006C000EF900895FF920F931F93CF93DF93182F0E
:1006D000F62E042FC0E0D0E001C02196812F0E94A9
:1006E00076089C01402F6F2D812F0E94FF018823E7
:1006F00021F4C83CD10589F706C0C83CD10518F4DF
:100700008FEF90E002C080E090E0DF91CF911F91E9
:100710000F91FF9008950F931F93CF93DF93CDB761
:10072000DEB72A970FB6F894DEBF0FBECDBF9C018F
:1007300080709C7F892B19F080E090E01DC080E2E2
:1007400089832A83832F9927282F8B83662311F08F
:1007500024602B838E010F5F1F4F23E043E061E095
:100760008FEF0E94C10080E00E94810041E06FEFA6
:1007700080E00E94620390E02A960FB6F894DEBFF4
:100780000FBECDBFDF91CF911F910F910895CF93F1
:10079000DF93CDB7DEB724970FB6F894DEBF0FBE58
:1007A000CDBF92EA99836A834B832C83AE014F5F5E
:1007B0005F4F64E00E943A0F24960FB6F894DEBFB4
:1007C0000FBECDBFDF91CF910895CF93DF93CDB70B
:1007D000DEB72A970FB6F894DEBF0FBECDBF90E804
:1007E000998391E89A8395E09B836C834D832E8354
:1007F0001F829FEF988719869AEA9A87AE014F5F0A
:100800005F4F6AE00E943A0F2A960FB6F894DEBF57
:100810000FBECDBFDF91CF910895CF92DF92FF92AF
:100820000F931F93CF93DF93CDB7DEB7C556D0405C
:100830000FB6F894DEBF0FBECDBF0E9415015D9AC2
:100840005C98299A2A980E940C010E94130E0E941B
:1008500051110E945D0E21E041E061E080EC0E94B8
:10086000E50321E041E061E084EC0E94E50321E042
:1008700041E061E082EC0E94E5030E945D01F9998C
:10088000FECFACE0B0E00E94F511E0931C03EE2334
:1008900061F08FB390E09C012270307081FDF9CF40
:1008A000ACE0B0E009010E94FA118CEF80931903CB
:1008B0006E010894C11CD11C81E00E9476089C0145
:1008C00040911C036091190381E00E94FF0188237D
:1008D00099F38091AB03843009F07AC080911203C0
:1008E000882351F780B1877C89F518992FC086B18C
:1008F0008C7C61F589B1807C49F5860129E040E076
:1009000060911C038BEF0E94C10080E00E94810077
:1009100040911C036BEF80E00E946203882361F228
:1009200080912303893041F68091A403823021F61F
:1009300080912403882311F09FEF01C090E0809103
:100940002503882319F4992309F4B6CF60911C0379
:100950008091AC03681709F4D3C28983860123E030
:1009600041E08BEF0E94C10080E00E948100409135
:10097000AC036BEF80E00E946203882309F4CAC2D3
:1009800080912303833029F48091A403882309F400
:10099000BAC282E0898341E0FF24FA948601209163
:1009A000AB0360911C03809119030E94C10081E098
:1009B0000E948100FF2009F47FCFF999FECF80913A
:1009C0001C0390E0ACE0B0E00C010E94FA1174CF7F
:1009D000883009F080C18091AC03282F30E0B90144
:1009E00044E0769567954A95E1F7FF24F394F82261
:1009F000663008F04BC1C9018C7090709595879551
:100A000095958795382F262F23502330A0F5330F47
:100A1000330F3F292295207F232B2983860128E04D
:100A200041E060911C038BEF0E94C10080E00E94B6
:100A3000810040911C036BEF80E00E9462038823D9
:100A400011F49FEF1FC1909123038091AB0398177E
:100A500009F066C28091A403813009F012C180912F
:100A60002403813009F448C2823009F455C283302E
:100A700009F056C20BC1662309F055C0882399F4CA
:100A8000FF2019F40A981298FCC00A9B02C0129920
:100A900033C20A9902C002993FC20A99F2C080B1DA
:100AA0000A9A129AEEC0813099F4FF2019F4209826
:100AB0002898E7C0209B02C028991EC2209902C036
:100AC00018992AC22099DDC083B1209A289AD9C0EA
:100AD000823099F4FF2019F408981098D2C0089B2E
:100AE00002C0109909C2089902C0009915C208995C
:100AF000C8C080B1089A109AC4C0833009F0C1C040
:100B0000FF2019F409981198BCC0099B02C01199E3
:100B1000F3C1099902C00199FFC10999B2C080B11E
:100B2000099A119AAEC0623009F055C0882399F431
:100B3000FF2019F457985F98A4C0579B02C05F9993
:100B4000DBC1579902C04F99E7C157999AC089B143
:100B5000579A5F9A96C0813099F4FF2019F43B9818
:100B600043988FC03B9B02C04399C6C13B9902C0CA
:100B70003399D2C13B9985C086B13B9A439A81C0D3
:100B8000823099F4FF2019F43A9842987AC03A9B3F
:100B900002C04299B1C13A9902C03299BDC13A9995
:100BA00070C086B13A9A429A6CC0833009F069C02D
:100BB000FF2019F456985E9864C0569B02C05E9957
:100BC0009BC1569902C04E99A7C156995AC089B186
:100BD000569A5E9A56C0613009F053C0882399F442
:100BE000FF2019F40E9816984CC00E9B02C016995F
:100BF00083C10E9902C006998FC10E9942C080B17F
:100C00000E9A169A3EC0813099F4FF2019F43F984D
:100C1000479837C03F9B02C047996EC13F9902C0B9
:100C200037997AC13F992DC086B13F9A479A29C01A
:100C3000823099F4FF2019F43E98469822C03E9BDA
:100C400002C0469959C13E9902C0369965C13E9984
:100C500018C086B13E9A469A14C0833091F4FF20A2
:100C600019F40F9817980DC00F9B02C0179944C133
:100C70000F9902C0079950C10F9903C080B10F9A14
:100C8000179A90E0A6961FAEA69702C083E00CC00C
:100C900040E0A6968FADA697882319F084E089835B
:100CA00041E0992319F085E0898341E08601209194
:100CB000AB0360911C03809119030E94C10081E085
:100CC0000E948100FF2019F410921203F5CD8FEFDE
:100CD00080931203F1CD893009F099C080911203FD
:100CE000882309F0E9CD0E945D0119821A821B82D6
:100CF000029B02C080E18983189B03C089818062C6
:100D00008983009B03C0898180648983019B03C020
:100D1000898180688983069B03C08981816089837A
:100D2000379B03C0898182608983369B03C0898198
:100D300084608983079B03C08981886089834F9B76
:100D400003C08A8180618A83339B03C08A81806269
:100D50008A83329B03C08A8180648A834E9B03C04E
:100D60008A8180688A8386012091AB0340E060918C
:100D70001C038BEF0E94C10080E00E948100409123
:100D80001C036BEF80E00E946203882319F490E05B
:100D90008FEF18C0909123038091AB03981781F4D3
:100DA0008091A403823061F48A8190912403892B7D
:100DB0008A838B8190912503892B8B8390E001C0DE
:100DC0009FEF80E01C82882319F483E0F82E04C092
:100DD00081E08C8304E0F02E992321F082E08C8363
:100DE00014E0F12EB60183E00E943B019C0180914A
:100DF000AA038E3F39F4222309F45ECD8C81882327
:100E000009F05ACD86012091AB034F2D6BC0823182
:100E100009F05AC08091AC03833010F5813019F489
:100E2000B4ECFB2E07C0823019F4A2ECFA2E02C0FB
:100E3000F0ECFF2E860122E140E060911C038091DE
:100E400019030E94C10081E00E9481002091AF033C
:100E50004091AE036091AD038F2D0E94C7032CCD4E
:100E6000835089838091AD038A838091AE038B8305
:100E70008091AF038C83860122E144E060911C03E2
:100E80008BEF0E94C10080E00E94810040911C0312
:100E90006BEF80E00E946203882381F1909123032D
:100EA0008091AB03981749F48091A403813019F421
:100EB0008091240303C0823088F184E0898341E07B
:100EC00086012091AB030EC0843109F0F5CC85E09A
:100ED0000E9418118983892F99278A83860120917E
:100EE000AB0342E060911C03809119030E94C10092
:100EF00081E00E948100E0CC81E0D6CE83E0DECFAD
:100F0000FF2440E04BCD8091AC0380931C03FF2471
:100F1000FA94F7CF81E03ECD82E0C6CE40E0D0CF5C
:100F200090E08FEFA6968FAFA697B2CEFC018FB759
:100F3000F8947183608353834283178216821582EB
:100F400014828FBF0895CF93DF93DC014FB7F894DD
:100F5000EC018C819D81892B11F4E0E01CC0FD0126
:100F600086819781ED91FC911197E80FF91FE0813F
:100F70000196ED019F838E832A813B81821793071F
:100F800020F0821B930B9F838E83ED018C819D81CA
:100F900001979D838C834FBF8E2F90E0DF91CF917F
:100FA0000895FC014FB7F8948481958168177907FB
:100FB000B0F486819781860F971F9783868322815D
:100FC00033818217930720F0821B930B97838683CC
:100FD00084819581861B970B9583848302C015823B
:100FE00014824FBF0895FC01CB014FB7F8942681BE
:100FF000378162817381820F931F0E94911101904A
:10100000F081E02DE80FF91F80814FBF90E0089537
:101010001F93CF93DF93EC01162F4FB7F8942C81D9
:101020003D816A817B8126173707A0F48E819F81DD
:10103000820F931F0E949111E881F981E80FF91F37
:1010400010838C819D8101969D838C834FBF8FEF90
:1010500090E003C04FBF80E090E0DF91CF911F91FF
:101060000895FC018FB7F8948FBF8281938124810A
:101070003581821B930B0895FC018FB7F89415827C
:1010800014828FBF0895823040F4E82FF0E0EE0F15
:10109000FF1FEE5DFD4F7183608308951F93182F2E
:1010A000CB01BA01F3E0660F771F881F991FFA95ED
:1010B000D1F79B01AC01220F331F441F551F605015
:1010C0007C4D8B409F4F0E94B81121503040832FA0
:1010D0009927112329F02093CC008093CD0004C0E0
:1010E0002093C4008093C5001F91089590E0A3E071
:1010F000880F991FAA95E1F7815D9B4F089590E0B5
:10110000B3E0880F991FBA95E1F78F5B9B4F089565
:10111000E82F882339F08091C80085FFFCCF6093C9
:10112000CE0006C08091C00085FFFCCF6093C60052
:10113000F0E0E35DFB4F10820895682F80E00E948D
:1011400088080895682F81E00E948808089520E0AB
:1011500030E0E82FF0E083E0EE0FFF1F8A95E1F723
:10116000E15DFB4F84819581892B11F421E030E012
:10117000C901089520E030E0E82FF0E093E0EE0FA1
:10118000FF1F9A95E1F7EF5BFB4F84819581892BD7
:1011900011F421E030E0C9010895CF93DF93882353
:1011A00019F06091CE0002C06091C600282F30E097
:1011B000E901CC0FDD1FFE01EE5DFD4F80819181C5
:1011C000892B31F00190F081E02D862F099514C014
:1011D00043E0220F331F4A95E1F7C901815D9B4F20
:1011E0000E940808882341F4FE01EF5AFB4F8081DA
:1011F0009181019691838083DF91CF9108951F9211
:101200000F920FB60F9211242F933F934F935F933A
:101210006F937F938F939F93AF93BF93EF93FF93BE
:1012200081E00E94CD08FF91EF91BF91AF919F9116
:101230008F917F916F915F914F913F912F910F907F
:101240000FBE0F901F9018951F920F920FB60F921E
:1012500011242F933F934F935F936F937F938F93BB
:101260009F93AF93BF93EF93FF9380E00E94CD08CD
:10127000FF91EF91BF91AF919F918F917F916F916E
:101280005F914F913F912F910F900FBE0F901F9044
:1012900018958F929F92AF92BF92CF92DF92EF926A
:1012A000FF920F931F93CF93DF93882E5B016A0108
:1012B000E82EFF24E70163E0CC0FDD1F6A95E1F71C
:1012C000CF5BDB4F8C819D81840F951F2A813B81F1
:1012D0008217930708F5452BF9F0F501908000E09F
:1012E00010E007C0F501E00FF11F6081CE010E9400
:1012F00008080F5F1F4F0C151D05A1F78FE394E041
:10130000E80EF91E8FEFF7018083692D882D0E946A
:1013100088088FEF90E002C080E090E0DF91CF91ED
:101320001F910F91FF90EF90DF90CF90BF90AF9003
:101330009F908F90089590E073E0880F991F7A95A1
:10134000E1F78F5B9B4F0E9408080895682F81E0AA
:101350000E949B090895682F80E00E949B090895D0
:10136000CF93DF93282FA82FB0E0ED01C15CDB4FB6
:1013700088818823E9F0FD0183E0EE0FFF1F8A9545
:10138000E1F7EF5BFB4F84819581892B81F022236C
:1013900039F089E494E00E94A3078093CE000CC04A
:1013A00081E494E00E94A3078093C60005C01882E0
:1013B000A35DBB4F8FEF8C93DF91CF9108951F9268
:1013C0000F920FB60F9211242F933F934F935F9379
:1013D0006F937F938F939F93AF93BF93EF93FF93FD
:1013E00081E00E94B009FF91EF91BF91AF919F9171
:1013F0008F917F916F915F914F913F912F910F90BE
:101400000FBE0F901F9018951F920F920FB60F925C
:1014100011242F933F934F935F936F937F938F93F9
:101420009F93AF93BF93EF93FF9380E00E94B00927
:10143000FF91EF91BF91AF919F918F917F916F91AC
:101440005F914F913F912F910F900FBE0F901F9082
:1014500018951F93182F90E0FC01E15CFB4F2FEFD4
:10146000208323E0880F991F2A95E1F78F5B9B4F1C
:101470000E94A307682F812F0E9488081F9108955A
:10148000CF93DF93EB01E82FF0E033E0EE0FFF1F87
:101490003A95E1F7E15DFB4F82819381892B59F009
:1014A00084819581892B39F0CF010E94A30788831D
:1014B0008FEF90E002C080E090E0DF91CF9108953F
:1014C000CF93DF93CDB7DEB721970FB6F894DEBF89
:1014D0000FBECDBFBE016F5F7F4F81E00E94400A0B
:1014E000882319F48FEF9FEF02C0898190E0219645
:1014F0000FB6F894DEBF0FBECDBFDF91CF91089538
:10150000CF93DF93CDB7DEB721970FB6F894DEBF48
:101510000FBECDBFBE016F5F7F4F80E00E94400ACB
:10152000882319F48FEF9FEF02C0898190E0219604
:101530000FB6F894DEBF0FBECDBFDF91CF910895F7
:1015400090E043E0880F991F4A95E1F7815D9B4F3A
:101550000E943C08089540E850E062E971E087E3AA
:1015600094E00E94960740E150E062E172E089E475
:1015700094E00E94960708950E94AB0A10922502FB
:101580001092240288ED8093C90040E855E260E0A3
:1015900070E081E00E944E088FEF80932E0410923D
:1015A000400410925404109253047894089540E833
:1015B00050E062E071E08FE294E00E94960740E123
:1015C00050E062E871E081E494E00E94960708959B
:1015D0000E94D70A109223021092220288ED809373
:1015E000C10040E855E260E070E080E00E944E08F3
:1015F0008FEF80932D0410923F04109252041092AA
:101600005104789408950E94E80A0E94BC0A089543
:10161000089585B5887F826085BD16BCEEE6F0E052
:10162000808181608083109255041092560410923C
:101630005704109258040895E1E8F0E08081887F13
:10164000836080831092850010928400EFE6F0E0C2
:101650008081816080830895E1EBF0E08081887F64
:10166000846080831092B200E0E7F0E080818160C6
:10167000808310925D0410925E0410925F041092B9
:101680006004089595B5987F982B95BD0895E1E87D
:10169000F0E09081987F982B90830895E1EBF0E043
:1016A0009081987F982B90830895E5B5F0E0E770DE
:1016B000F070EE0FFF1FE458FF4F8591949108954D
:1016C000E0918100F0E0E770F070EE0FFF1FE4584A
:1016D000FF4F859194910895E091B100F0E0E7709B
:1016E000F070EE0FFF1FE458FF4F8591949108951D
:1016F000873040F4E82FF0E0EE0FFF1FEA5DFD4F6A
:10170000718360830895873040F4E82FF0E0EE0F96
:10171000FF1FEA5DFD4F118210820895EF92FF9244
:101720000F931F93CF93DF93EC0116B510925904DA
:1017300010925A0410925B0410925C040E94550BA4
:101740009C0140E050E060E074E284EF90E00E9491
:10175000DA11CA01B901693B2DE8720726E0820758
:1017600020E0920780F427E2C131D20760F49E01A5
:1017700040E050E00E94721128EE33E040E050E07B
:101780000E94B81123C028EE33E040E050E00E94F0
:10179000B811CA01B9019E0140E050E00E947211E7
:1017A0009B01AC0113C08091590490915A04A091FF
:1017B0005B04B0915C0483B7817F83BF83B7816092
:1017C00083BF889583B78E7F83BF06C0210F311DED
:1017D000411D511D79018A012091590430915A040B
:1017E00040915B0450915C0486B590E0A0E0B0E0CD
:1017F000542F432F322F2227822B932BA42BB52B30
:101800008E159F05A007B10770F2DF91CF911F9150
:101810000F91FF90EF900895109255041092560486
:1018200010925704109258040895609155047091D5
:1018300056048091570490915804089510925D04C5
:1018400010925E0410925F041092600408956091FB
:101850005D0470915E0480915F049091600408952E
:10186000893049F48091800082608093800080916B
:1018700080008E7F0EC08A3021F4809180008260CB
:1018800003C0809180008D7F8093800080918000D4
:1018900081608093800010928900109288001092DD
:1018A0008B0010928A000895E0E8F0E020812E7FFE
:1018B0002083208122602083E1E8F0E020812860FD
:1018C000208320812061208390938700809386006D
:1018D000109289001092880010928B0010928A005A
:1018E0000895E0E8F0E080818068808380818F7BCC
:1018F00080830895E0E8F0E08081806280838081C9
:101900008F7E80830895E0E8F0E080818F77808388
:1019100080818F7B80830895E0E8F0E080818F7D77
:10192000808380818F7E8083089590938900809347
:101930008800089590938B0080938A0008951F92E9
:101940000F920FB60F9211242F933F934F935F93F3
:101950006F937F938F939F93AF93BF93EF93FF9377
:101960008091550490915604A0915704B091580469
:101970000196A11DB11D8093550490935604A09328
:101980005704B09358048091590490915A04A0913F
:101990005B04B0915C040196A11DB11D80935904B4
:1019A00090935A04A0935B04B0935C048091260248
:1019B00090912702892B29F0E0912602F0912702CD
:1019C0000995FF91EF91BF91AF919F918F917F9179
:1019D0006F915F914F913F912F910F900FBE0F909C
:1019E0001F9018951F920F920FB60F9211242F93EC
:1019F0003F934F935F936F937F938F939F93AF9397
:101A0000BF93EF93FF938091280290912902892B35
:101A100029F0E0912802F09129020995FF91EF91B8
:101A2000BF91AF919F918F917F916F915F914F91F6
:101A30003F912F910F900FBE0F901F9018951F92FE
:101A40000F920FB60F9211242F933F934F935F93F2
:101A50006F937F938F939F93AF93BF93EF93FF9376
:101A600080915D0490915E04A0915F04B091600448
:101A70000196A11DB11D80935D0490935E04A09317
:101A80005F04B09360048091300290913102892B01
:101A900029F0E0913002F09131020995FF91EF9128
:101AA000BF91AF919F918F917F916F915F914F9176
:101AB0003F912F910F900FBE0F901F9018951F927E
:101AC0000F920FB60F9211242F933F934F935F9372
:101AD0006F937F938F939F93AF93BF93EF93FF93F6
:101AE00080912A0290912B02892B29F0E0912A0201
:101AF000F0912B020995FF91EF91BF91AF919F91CA
:101B00008F917F916F915F914F913F912F910F90A6
:101B10000FBE0F901F9018951F920F920FB60F9245
:101B200011242F933F934F935F936F937F938F93E2
:101B30009F93AF93BF93EF93FF9380912C0290916B
:101B40002D02892B29F0E0912C02F0912D020995AC
:101B5000FF91EF91BF91AF919F918F917F916F9185
:101B60005F914F913F912F910F900FBE0F901F905B
:101B700018951F920F920FB60F9211242F933F9337
:101B80004F935F936F937F938F939F93AF93BF9385
:101B9000EF93FF9380912E0290912F02892B29F0D1
:101BA000E0912E02F0912F020995FF91EF91BF91E4
:101BB000AF919F918F917F916F915F914F913F91E5
:101BC0002F910F900FBE0F901F9018951F920F929C
:101BD0000FB60F9211242F933F934F935F936F9300
:101BE0007F938F939F93AF93BF93EF93FF938091D6
:101BF000320290913302892B29F0E0913202F09168
:101C000033020995FF91EF91BF91AF919F918F9111
:101C10007F916F915F914F913F912F910F900FBEE8
:101C20000F901F90189580E090E0FC01EE0FFF1FD1
:101C3000EA5DFD4F11821082019687309105A9F768
:101C40000E94090B0E941C0B0E942C0B7894089593
:101C5000E0E8F0E080818D7F808380818E7F8083CB
:101C600080818F77808380818F7B808380818F7D4F
:101C7000808380818F7E808308952091B9002E7F9C
:101C80002093B9002091B9002D7F2093B9009C01C9
:101C900040E050E060E87EE380E090E00E94DA11EE
:101CA000203140F0822F90E0409762E070E00E9487
:101CB000A511262F2093B8000895409A419A589A6A
:101CC000599A10927C0210927B0210927E0210921E
:101CD0007D0284E690E00E943D0EECEBF0E0808116
:101CE000846080831092350210923402808181607A
:101CF00080838081806480837894089590E061116E
:101D000091E08E7F982B9093BA00089590937C0277
:101D100080937B02089590937E0280937D020895C4
:101D2000ECEBF0E080818F70806A80830895ECEBAB
:101D3000F0E080818F70806D808308958091BC0079
:101D400087FFFCCF08958093BB00ECEBF0E080812F
:101D50008F70806880830895882329F08091BC006B
:101D60008F70806C04C08091BC008F7080688093FD
:101D7000BC0008958091BB0090E008958091B90067
:101D800090E0089580913402909135020895982F43
:101D9000FA018091BC008E7F8093BC008091BC00D2
:101DA0008F70806A8093BC008091BC0087FFFCCF5D
:101DB0009E7F9093BB008091BC008F708068809361
:101DC000BC008091BC0087FFFCCF8091B9008831B6
:101DD00089F091E012C080818093BB008091BC00AB
:101DE0008F7080688093BC008091BC0087FFFCCF1F
:101DF00031966150662379F790E08091BC008F7036
:101E0000806D8093BC008091BC0084FFFCCF8091EA
:101E1000BC0081608093BC00892F90E00895282F3A
:101E2000DA018091340290913502892BD1F783E059
:101E300090E0909335028093340221602093360223
:101E40001092790260937A028091BC008F70806A50
:101E50008093BC008091340290913502892BD1F798
:101E6000E9E5F2E090E003C081918D939F5F9617C2
:101E7000D9F70895282FFA01809134029091350204
:101E8000892BD1F782E090E0909335028093340261
:101E90002E7F20933602A7E3B2E090E003C0819149
:101EA0008D939F5F9617D9F710925702609358024F
:101EB0008091BC008F70806A8093BC0008951F924F
:101EC0000F920FB60F9211242F933F934F935F936E
:101ED0006F937F938F939F93AF93BF93EF93FF93F2
:101EE0008091B900887F803609F49FC0813670F5F3
:101EF000883209F45FC0893298F4803109F457C000
:101F0000813138F4882309F4F5C0883009F0FCC029
:101F10004EC0883109F44EC0803209F0F5C0EAC0E5
:101F2000803409F477C0813438F4803309F4E2C096
:101F3000883309F0E9C05DC0803509F45FC0883599
:101F400009F44AC0883409F0DFC0D4C0883909F4E4
:101F500085C08939B0F4883709F467C0893738F407
:101F6000883609F462C0803709F0CEC05EC0883878
:101F700009F474C0803909F461C0803809F0C4C024
:101F80005DC0803B09F481C0813B38F4803A09F49C
:101F900069C0883A09F0B8C078C0803C09F4A5C08F
:101FA000883C09F4A2C0883B09F0AEC082C0809191
:101FB00036020FC09091570280915802981708F08E
:101FC00099C0E92FF0E0E95CFD4F80819F5F90931D
:101FD00057028093BB0082C0809179029091BB0030
:101FE000E82FF0E0E75AFD4F90838F5F80937902EE
:101FF00081C08091BC008F70806880C08091790220
:102000009091BB00E82FF0E0E75AFD4F90838F5F7F
:10201000809379022091790230E080917A0290E0F9
:10202000019728173907C4F019C085E090E0909314
:10203000350280933402109279024BC0809179026C
:102040009091BB00E82FF0E0E75AFD4F90838F5F3F
:1020500080937902803210F48FEF01C080E00E94FB
:10206000AC0E52C08091BC008F70806C8093BC001D
:10207000E0917B02F0917C02309709F441C069E560
:1020800072E08091790209953BC084E090E09093E2
:10209000350280933402E0917D02F0917E02309708
:1020A00031F067E372E080E2099580935802109264
:1020B000570290915702E92FF0E0E95CFD4F8081D3
:1020C0008093BB009F5F90935702809158029817AE
:1020D00028F48091BC008F70806C04C08091BC009B
:1020E0008F7080688093BC000FC08091BC008F709F
:1020F000806C04C08091BC008F70806D8093BC00A8
:102100001092350210923402FF91EF91BF91AF917E
:102110009F918F917F916F915F914F913F912F91FF
:102120000F900FBE0F901F9018951F93CF93DF93C2
:10213000982F162FEA018091BC008E7F8093BC00FF
:102140008091BC008F70806A8093BC008091BC003D
:1021500087FFFCCF91609093BB008091BC008F7093
:1021600080688093BC008091BC0087FFFCCF809189
:10217000B900803469F091E018C08FEF0E94AC0E76
:102180008091BC0087FFFCCF8091BB0089931150E8
:10219000123098F780E00E94AC0E8091BC0087FF5F
:1021A000FCCF8091BB00888390E08091BC008F7051
:1021B000806D8093BC008091BC0081608093BC00E6
:1021C000892F90E0DF91CF911F910895EAE7F0E029
:1021D0008081877F808380818F7780830895EAE77D
:1021E000F0E09081987F982B90830895ECE7F0E0E1
:1021F00090818295880F880F807C9F73982B9083A5
:102200000895ECE7F0E090818F71907E892B8083B8
:102210000895EAE7F0E080818061808380818064B6
:102220008083089580917A0090E080749070089582
:102230001092610490917C008F71907E892B809325
:102240007C0080917A00806180937A0080917A008E
:10225000806480937A0080917A0086FDFCCF209183
:1022600078008091790090E0982F882730E0822BC9
:10227000932B08950E9418119695879596958795AA
:1022800090E008951F920F920FB60F9211248F9332
:102290008FEF809361048F910F900FBE0F901F906E
:1022A00018950F931F930AE710E0F801808180686A
:1022B000808380818F7D80838081887F866080831A
:1022C00081E00E94F610ECE7F0E080818F7D808352
:1022D000F8018081886080831092610478941F9156
:1022E0000F910895629FD001739FF001829FE00DCE
:1022F000F11D649FE00DF11D929FF00D839FF00D85
:10230000749FF00D659FF00D9927729FB00DE11D30
:10231000F91F639FB00DE11DF91FBD01CF0111240D
:102320000895AA1BBB1B51E107C0AA1FBB1FA6171C
:10233000B70710F0A61BB70B881F991F5A95A9F76E
:1023400080959095BC01CD01089597FB092E072635
:102350000AD077FD04D0E5DF06D000201AF470958E
:1023600061957F4F0895F6F7909581959F4F089559
:10237000A1E21A2EAA1BBB1BFD010DC0AA1FBB1F89
:10238000EE1FFF1FA217B307E407F50720F0A21BFB
:10239000B30BE40BF50B661F771F881F991F1A9468
:1023A00069F760957095809590959B01AC01BD0192
:1023B000CF01089597FB092E05260ED057FD04D0B6
:1023C000D7DF0AD0001C38F4509540953095219500
:1023D0003F4F4F4F5F4F0895F6F79095809570955A
:1023E00061957F4F8F4F9F4F089509D0E02D07D003
:1023F000F02D08950CD0012C0AD011240895F999DC
:10240000FECFB2BDA1BDF89A119600B40895F99916
:10241000FECFB2BDA1BD00BC11960FB6F894FA9ADA
:08242000F99A0FBE0895FFCFE9
:00000001FF
