:100000000C944C000C9469000C9469000C946900E9
:100010000C9469000C9469000C9469000C946900BC
:100020000C9469000C94DF090C9469000C94180975
:100030000C94B2090C9458090C9485090C94EB08A3
:100040000C9469000C9469000C9498080C94690055
:100050000C941D050C9469000C94FD050C9469002A
:100060000C943B0D0C9469000C94580B0C94690093
:100070000C94F8040C9469000C94D805000001005D
:1000800008004000000100040000010008002000FA
:10009000400080000001000411241FBECFEFD8E013
:1000A000DEBFCDBF11E0A0E0B1E0EEEDFBE102C0AC
:1000B00005900D92A030B107D9F714E0A0E0B1E0AF
:1000C00001C01D92A834B107E1F70E9435030C94DA
:1000D000EE0D0C940000CF93DF93CDB7DEB72497DD
:1000E0000FB6F894DEBF0FBECDBF92EA99836A8344
:1000F0004B832C83AE014F5F5F4F64E00E94330B54
:1001000024960FB6F894DEBF0FBECDBFDF91CF911E
:100110000895CF93DF93CDB7DEB72A970FB6F89443
:10012000DEBF0FBECDBF90E8998391E89A8395E03A
:100130009B836C834D832E831F829FEF9887198644
:100140009AEA9A87AE014F5F5F4F6AE00E94330BD5
:100150002A960FB6F894DEBF0FBECDBFDF91CF91C8
:10016000089593E0899FA001112420E030E002C0AF
:100170002D9A2D98822F90E02F5F3F4F841795077F
:10018000BCF308954F925F926F927F928F929F92ED
:10019000AF92BF92CF92DF92EF92FF920F931F9395
:1001A000CF93DF93482E862EF42EE90118C060E02D
:1001B00070E0CE010E94EC038F3F71F461E070E0CB
:1001C000CE010E94EC03881579F061E070E0CE0169
:1001D0000E94EC038E3F41F0CE010E949C038C8173
:1001E0009D81892B21F7B9C08C819D81049708F4EA
:1001F000B2C08FEF881649F463E070E0CE010E9430
:10020000EC032EEF922E980E06C063E070E0CE0154
:100210000E94EC03982E092D10E098012A5F3F4FB1
:10022000213831050CF094C08C819D818217930791
:1002300008F491C061E070E0CE010E94EC038815E3
:1002400039F462E070E0CE010E94EC038F1541F0BA
:1002500061E070E0CE010E94EC038E3F09F074C0B3
:100260000B5F1F4FB801CE010E94EC03582E62E0D5
:1002700070E0CE010E94EC03182F63E070E0CE0125
:100280000E94EC03082F64E070E0CE010E94EC03B2
:10029000010F080F95E0E92EF12CC92CDD2485E033
:1002A000A82EB12CAC0CBD1C08C0B701CE010E9419
:1002B000EC03080F0894E11CF11C3601EA14FB045E
:1002C000A1F79FEF891609F400955016E9F544202F
:1002D00019F40FE712E002C00FE813E062E070E0EB
:1002E000CE010E94EC03F801808361E070E0CE0152
:1002F0000E94EC03F801818364E070E0CE010E946B
:10030000EC03F80182830D571F4FF80190820358C8
:100310001040EE24FF240EC085E090E0E80EF91EA8
:10032000B701CE010E94EC03F80182838CEF9FEFAE
:10033000E80EF91E0F5F1F4FE614F70469F7CE01B0
:100340000E9435048FEF11C0CE010E949C0303C0B0
:10035000CE010E94350480E008C02C813D818A8155
:100360009B8128173907B8F3F3CF90E0DF91CF9145
:100370001F910F91FF90EF90DF90CF90BF90AF90C3
:100380009F908F907F906F905F904F90089583E043
:1003900093E00E9435040895EF92FF920F931F930C
:1003A000CF93DF93E82E882329F429982A9A06E927
:1003B00014E004C05D985C9A0BE914E0FFB6F89471
:1003C000C3E0D3E005C0CE010E949C03F80109956B
:1003D000CE010E942A0480389105A9F7FFBEEE20C5
:1003E00031F484E10E94B1002A98299A05C084E181
:1003F0000E94B1005C985D9A0E94C701DF91CF9185
:100400001F910F91FF90EF900895682F83E093E084
:100410000E94010490E00895CF92DF92EF92FF9244
:100420000F931F93CF93DF93D82EF62EE42EC22E78
:10043000E8010E94C7018FEF0E9405028D2D0E94E6
:1004400005028F2D0E9405028FEFD81619F48E2D0C
:100450008E5F01C08E2D0E9405028C2D0E94050228
:100460008FEFD81621F46F2D6E5F6E0D02C06E2DCA
:100470006F0D162F1C0D00E006C088810E9405023A
:100480008991180F0F5F0E15C1F78FEFD81619F469
:10049000812F809501C0812F0E940502DF91CF91AD
:1004A0001F910F91FF90EF90DF90CF90089540E85B
:1004B00050E06BE073E083E093E00E948F030895C7
:1004C000219A229A2A982998559A549A5C985D986C
:1004D0000E94FC0640E052EC61E070E080E00E9487
:1004E000470440E052EC61E070E081E00E94470484
:1004F0001092C0001092C50082E08093C400109258
:10050000C8001092CD008093CC00089581B188730B
:1005100081B982B1887382B92098289887B1837392
:1005200087B988B1837388B98AB18F738AB98BB15F
:100530008F738BB90895BF92CF92DF92EF92FF92A3
:100540000F931F93D82EB62EC42EEE24FF248701BE
:1005500005C00894E11CF11C011D111D8D2D0E9488
:100560006F049C014C2D6B2D8D2D0E94C2008823A1
:1005700051F480E6E8168AEEF80680E0080780E08D
:10058000180739F70CC080E6E8168AEEF80680E016
:10059000080780E0180718F480E090E002C082E0CD
:1005A00090E01F910F91FF90EF90DF90CF90BF9060
:1005B00008950F931F93CF93DF93CDB7DEB76B856D
:1005C0004C852D859A858985823119F083E090E0EC
:1005D0001FC0992311F480EC0AC0913011F484EC0F
:1005E00006C0923019F081E090E012C082EC0E94C7
:1005F0006B0000E010E022E140E060918C0380910C
:100600008B030E940C0281E00E94CC0180E090E00C
:10061000DF91CF911F910F9108958130910519F0CD
:10062000039711F511C020E040E060E884EC0E94DF
:100630006B008AE090E00E94870720E040E060E0E5
:1006400084EC0E946B00089520E040E860E084ECB8
:100650000E946B008AE090E00E94870720E040E063
:1006600060E084EC0E946B000895CF93DF938BEFE2
:1006700080938B0310928C030E9460025D9A5C98B9
:10068000299A2A980E9457020E940C0A0E944A0D39
:100690000E94560A21E041E061E080EC0E9489005E
:1006A00021E041E061E084EC0E94890021E041E02A
:1006B00061E082EC0E9489000E948602CFE8D3E0CC
:1006C00081E00E946F049C0140918C0360918B0338
:1006D00081E00E94C200882399F32DB73EB72458C9
:1006E00030400FB6F8943EBF0FBE2DBFADB7BEB7BA
:1006F0001196FE0184E801900D928150E1F70E946D
:10070000D9022DB73EB72C573F4F0FB6F8943EBFD6
:100710000FBE2DBF0097A1F20E940D03D1CFFC01A7
:100720008FB7F89471836083538342831782168254
:10073000158214828FBF0895CF93DF93DC014FB7EA
:10074000F894EC018C819D81892B11F4E0E01CC0B0
:10075000FD0186819781ED91FC911197E80FF91FBA
:10076000E0810196ED019F838E832A813B81821770
:10077000930720F0821B930B9F838E83ED018C8166
:100780009D8101979D838C834FBF8E2F90E0DF91D9
:10079000CF910895FC014FB7F89484819581681733
:1007A0007907B0F486819781860F971F9783868398
:1007B000228133818217930720F0821B930B97834A
:1007C000868384819581861B970B9583848302C0E1
:1007D000158214824FBF0895FC01CB014FB7F894E6
:1007E0002681378162817381820F931F0E948A0D57
:1007F0000190F081E02DE80FF91F80814FBF90E05C
:1008000008951F93CF93DF93EC01162F4FB7F89401
:100810002C813D816A817B8126173707A0F48E8168
:100820009F81820F931F0E948A0DE881F981E80F52
:10083000F91F10838C819D8101969D838C834FBF0E
:100840008FEF90E003C04FBF80E090E0DF91CF9149
:100850001F910895FC018FB7F8948FBF8281938117
:1008600024813581821B930B0895FC018FB7F89486
:10087000158214828FBF0895823040F4E82FF0E093
:10088000EE0FFF1FE05EFD4F7183608308951F939D
:10089000182FCB01BA01F3E0660F771F881F991F4D
:1008A000FA95D1F79B01AC01220F331F441F551F4E
:1008B00060507C4D8B409F4F0E94B10D21503040C5
:1008C000832F9927112329F02093CC008093CD000A
:1008D00004C02093C4008093C5001F91089590E048
:1008E000A3E0880F991FAA95E1F78B5E9B4F0895AF
:1008F00090E0B3E0880F991FBA95E1F7895D9B4FAF
:100900000895E82F882339F08091C80085FFFCCF37
:100910006093CE0006C08091C00085FFFCCF60933D
:10092000C600F0E0ED5EFB4F10820895682F80E076
:100930000E9481040895682F81E00E948104089537
:1009400020E030E0E82FF0E083E0EE0FFF1F8A9513
:10095000E1F7EB5EFB4F84819581892B11F421E057
:1009600030E0C901089520E030E0E82FF0E093E0A6
:10097000EE0FFF1F9A95E1F7E95DFB4F84819581AA
:10098000892B11F421E030E0C9010895CF93DF9362
:10099000882319F06091CE0002C06091C600282F14
:1009A00030E0E901CC0FDD1FFE01E05EFD4F8081EC
:1009B0009181892B31F00190F081E02D862F0995EE
:1009C00014C043E0220F331F4A95E1F7C9018B5E43
:1009D0009B4F0E940104882341F4FE01E95CFB4F18
:1009E00080819181019691838083DF91CF910895D9
:1009F0001F920F920FB60F9211242F933F934F9394
:100A00005F936F937F938F939F93AF93BF93EF9376
:100A1000FF9381E00E94C604FF91EF91BF91AF91D7
:100A20009F918F917F916F915F914F913F912F9106
:100A30000F900FBE0F901F9018951F920F920FB638
:100A40000F9211242F933F934F935F936F937F9354
:100A50008F939F93AF93BF93EF93FF9380E00E9498
:100A6000C604FF91EF91BF91AF919F918F917F91BC
:100A70006F915F914F913F912F910F900FBE0F900B
:100A80001F9018958F929F92AF92BF92CF92DF9254
:100A9000EF92FF920F931F93CF93DF93882E5B010A
:100AA0006A01E82EFF24E70163E0CC0FDD1F6A95A1
:100AB000E1F7C95DDB4F8C819D81840F951F2A81F1
:100AC0003B818217930708F5452BF9F0F5019080DB
:100AD00000E010E007C0F501E00FF11F6081CE01DA
:100AE0000E9401040F5F1F4F0C151D05A1F785E241
:100AF00094E0E80EF91E8FEFF7018083692D882DB1
:100B00000E9481048FEF90E002C080E090E0DF91CE
:100B1000CF911F910F91FF90EF90DF90CF90BF90FA
:100B2000AF909F908F90089590E073E0880F991F89
:100B30007A95E1F7895D9B4F0E9401040895682F23
:100B400081E00E9494050895682F80E00E9494053A
:100B50000895CF93DF93282FA82FB0E0ED01CB5D50
:100B6000DB4F88818823E9F0FD0183E0EE0FFF1F52
:100B70008A95E1F7E95DFB4F84819581892B81F0AE
:100B8000222339F08FE294E00E949C038093CE00F0
:100B90000CC087E294E00E949C038093C60005C0CD
:100BA0001882AD5EBB4F8FEF8C93DF91CF9108958C
:100BB0001F920F920FB60F9211242F933F934F93D2
:100BC0005F936F937F938F939F93AF93BF93EF93B5
:100BD000FF9381E00E94A905FF91EF91BF91AF9132
:100BE0009F918F917F916F915F914F913F912F9145
:100BF0000F900FBE0F901F9018951F920F920FB677
:100C00000F9211242F933F934F935F936F937F9392
:100C10008F939F93AF93BF93EF93FF9380E00E94D6
:100C2000A905FF91EF91BF91AF919F918F917F9116
:100C30006F915F914F913F912F910F900FBE0F9049
:100C40001F9018951F93182F90E0FC01EB5DFB4F50
:100C50002FEF208323E0880F991F2A95E1F7895D04
:100C60009B4F0E949C03682F812F0E9481041F913B
:100C70000895CF93DF93EB01E82FF0E033E0EE0F20
:100C8000FF1F3A95E1F7EB5EFB4F82819381892B41
:100C900059F084819581892B39F0CF010E949C0302
:100CA00088838FEF90E002C080E090E0DF91CF91E9
:100CB0000895CF93DF93CDB7DEB721970FB6F894A1
:100CC000DEBF0FBECDBFBE016F5F7F4F81E00E94D0
:100CD0003906882319F48FEF9FEF02C0898190E0D5
:100CE00021960FB6F894DEBF0FBECDBFDF91CF9136
:100CF0000895CF93DF93CDB7DEB721970FB6F89461
:100D0000DEBF0FBECDBFBE016F5F7F4F80E00E9490
:100D10003906882319F48FEF9FEF02C0898190E094
:100D200021960FB6F894DEBF0FBECDBFDF91CF91F5
:100D3000089590E043E0880F991F4A95E1F78B5E94
:100D40009B4F0E943504089540E850E060E971E04F
:100D50008DE194E00E948F0340E150E060E172E099
:100D60008FE294E00E948F0308950E94A4061092DF
:100D700023021092220288ED8093C90040E855E2D8
:100D800060E070E081E00E9447048FEF80931404DC
:100D90001092260410923A0410923904789408951F
:100DA00040E850E060E071E085E194E00E948F034C
:100DB00040E150E060E871E087E294E00E948F0338
:100DC00008950E94D006109221021092200288ED10
:100DD0008093C10040E855E260E070E080E00E944E
:100DE00047048FEF80931304109225041092380467
:100DF00010923704789408950E94E1060E94B50687
:100E00000895089585B5887F826085BD16BCEEE69D
:100E1000F0E080818160808310923B0410923C045A
:100E200010923D0410923E040895E1E8F0E08081C4
:100E3000887F836080831092850010928400EFE6A3
:100E4000F0E08081816080830895E1EBF0E08081B3
:100E5000887F846080831092B200E0E7F0E08081B8
:100E600081608083109243041092440410924504E0
:100E700010924604089595B5987F982B95BD0895D6
:100E8000E1E8F0E09081987F982B90830895E1EB62
:100E9000F0E09081987F982B90830895E5B5F0E07D
:100EA000E770F070EE0FFF1FE458FF4F85919491AB
:100EB0000895E0918100F0E0E770F070EE0FFF1F01
:100EC000E458FF4F859194910895E091B100F0E0CE
:100ED000E770F070EE0FFF1FE458FF4F859194917B
:100EE0000895873040F4E82FF0E0EE0FFF1FEC5D2F
:100EF000FD4F718360830895873040F4E82FF0E060
:100F0000EE0FFF1FEC5DFD4F118210820895EF92EE
:100F1000FF920F931F93CF93DF93EC0116B51092BE
:100F20003F041092400410924104109242040E9427
:100F30004E079C0140E050E060E074E284EF90E0F6
:100F40000E94D30DCA01B901693B2DE8720726E062
:100F5000820720E0920780F427E2C131D20760F4D3
:100F60009E0140E050E00E946B0D28EE33E040E02F
:100F700050E00E94B10D23C028EE33E040E050E085
:100F80000E94B10DCA01B9019E0140E050E00E94EB
:100F90006B0D9B01AC0113C080913F049091400404
:100FA000A0914104B091420483B7817F83BF83B78E
:100FB000816083BF889583B78E7F83BF06C0210F72
:100FC000311D411D511D79018A0120913F0430914D
:100FD0004004409141045091420486B590E0A0E065
:100FE000B0E0542F432F322F2227822B932BA42B98
:100FF000B52B8E159F05A007B10770F2DF91CF9139
:101000001F910F91FF90EF90089510923B04109262
:101010003C0410923D0410923E04089560913B04FC
:1010200070913C0480913D0490913E04089510928B
:10103000430410924404109245041092460408950B
:10104000609143047091440480914504909146045A
:101050000895893049F480918000826080938000F7
:10106000809180008E7F0EC08A3021F480918000B4
:10107000826003C0809180008D7F8093800080918A
:101080008000816080938000109289001092880017
:1010900010928B0010928A000895E0E8F0E0208121
:1010A0002E7F2083208122602083E1E8F0E02081F0
:1010B0002860208320812061208390938700809383
:1010C0008600109289001092880010928B00109276
:1010D0008A000895E0E8F0E0808180688083808164
:1010E0008F7B80830895E0E8F0E0808180628083D8
:1010F00080818F7E80830895E0E8F0E080818F77A3
:10110000808380818F7B80830895E0E8F0E0808198
:101110008F7D808380818F7E808308959093890066
:1011200080938800089590938B0080938A0008959F
:101130001F920F920FB60F9211242F933F934F934C
:101140005F936F937F938F939F93AF93BF93EF932F
:10115000FF9380913B0490913C04A0913D04B09199
:101160003E040196A11DB11D80933B0490933C0465
:10117000A0933D04B0933E0480913F0490914004BD
:10118000A0914104B09142040196A11DB11D80932C
:101190003F0490934004A0934104B0934204809193
:1011A000240290912502892B29F0E0912402F091EC
:1011B00025020995FF91EF91BF91AF919F918F917A
:1011C0007F916F915F914F913F912F910F900FBE43
:1011D0000F901F9018951F920F920FB60F92112427
:1011E0002F933F934F935F936F937F938F939F932F
:1011F000AF93BF93EF93FF938091260290912702C4
:10120000892B29F0E0912602F09127020995FF91A0
:10121000EF91BF91AF919F918F917F916F915F916E
:101220004F913F912F910F900FBE0F901F901895E7
:101230001F920F920FB60F9211242F933F934F934B
:101240005F936F937F938F939F93AF93BF93EF932E
:10125000FF938091430490914404A0914504B09180
:1012600046040196A11DB11D80934304909344044C
:10127000A0934504B093460480912E0290912F02D2
:10128000892B29F0E0912E02F0912F020995FF9110
:10129000EF91BF91AF919F918F917F916F915F91EE
:1012A0004F913F912F910F900FBE0F901F90189567
:1012B0001F920F920FB60F9211242F933F934F93CB
:1012C0005F936F937F938F939F93AF93BF93EF93AE
:1012D000FF938091280290912902892B29F0E091B7
:1012E0002802F09129020995FF91EF91BF91AF91EA
:1012F0009F918F917F916F915F914F913F912F912E
:101300000F900FBE0F901F9018951F920F920FB65F
:101310000F9211242F933F934F935F936F937F937B
:101320008F939F93AF93BF93EF93FF9380912A0284
:1013300090912B02892B29F0E0912A02F0912B0247
:101340000995FF91EF91BF91AF919F918F917F91FF
:101350006F915F914F913F912F910F900FBE0F9022
:101360001F9018951F920F920FB60F9211242F9372
:101370003F934F935F936F937F938F939F93AF931D
:10138000BF93EF93FF9380912C0290912D02892BB4
:1013900029F0E0912C02F0912D020995FF91EF9137
:1013A000BF91AF919F918F917F916F915F914F917D
:1013B0003F912F910F900FBE0F901F9018951F9285
:1013C0000F920FB60F9211242F933F934F935F9379
:1013D0006F937F938F939F93AF93BF93EF93FF93FD
:1013E0008091300290913102892B29F0E0913002F6
:1013F000F09131020995FF91EF91BF91AF919F91CB
:101400008F917F916F915F914F913F912F910F90AD
:101410000FBE0F901F90189580E090E0FC01EE0F3A
:10142000FF1FEC5DFD4F1182108201968730910500
:10143000A9F70E9402070E9415070E9425077894C9
:101440000895E0E8F0E080818D7F808380818E7F49
:10145000808380818F77808380818F7B8083808170
:101460008F7D808380818F7E808308952091B90055
:101470002E7F2093B9002091B9002D7F2093B900D1
:101480009C0140E050E060E87EE380E090E00E9454
:10149000D30D203140F0822F90E0409762E070E061
:1014A0000E949E0D262F2093B8000895409A419ADD
:1014B000589A599A10927A021092790210927C02EC
:1014C00010927B0284E690E00E94360AECEBF0E09A
:1014D0008081846080831092330210923202808176
:1014E000816080838081806480837894089590E017
:1014F000611191E08E7F982B9093BA00089590939C
:101500007A0280937902089590937C0280937B0203
:101510000895ECEBF0E080818F70806A80830895FD
:10152000ECEBF0E080818F70806D80830895809176
:10153000BC0087FFFCCF08958093BB00ECEBF0E08C
:1015400080818F70806880830895882329F080913E
:10155000BC008F70806C04C08091BC008F7080686C
:101560008093BC0008958091BB0090E00895809125
:10157000B90090E00895809132029091330208956D
:10158000982FFA018091BC008E7F8093BC008091DF
:10159000BC008F70806A8093BC008091BC0087FF84
:1015A000FCCF9E7F9093BB008091BC008F708068C1
:1015B0008093BC008091BC0087FFFCCF8091B90074
:1015C000883189F091E012C080818093BB008091C6
:1015D000BC008F7080688093BC008091BC0087FF46
:1015E000FCCF31966150662379F790E08091BC0082
:1015F0008F70806D8093BC008091BC0084FFFCCF15
:101600008091BC0081608093BC00892F90E0089598
:10161000282FDA018091320290913302892BD1F781
:1016200083E090E090933302809332022160209314
:10163000340210927702609378028091BC008F7020
:10164000806A8093BC008091320290913302892B92
:10165000D1F7E7E5F2E090E003C081918D939F5FC1
:101660009617D9F70895282FFA01809132029091A8
:101670003302892BD1F782E090E09093330280937C
:1016800032022E7F20933402A5E3B2E090E003C043
:1016900081918D939F5F9617D9F7109255026093B1
:1016A00056028091BC008F70806A8093BC000895C0
:1016B0001F920F920FB60F9211242F933F934F93C7
:1016C0005F936F937F938F939F93AF93BF93EF93AA
:1016D000FF938091B900887F803609F49FC08136DE
:1016E00070F5883209F45FC0893298F4803109F4CA
:1016F00057C0813138F4882309F4F5C0883009F0E7
:10170000FCC04EC0883109F44EC0803209F0F5C0EB
:10171000EAC0803409F477C0813438F4803309F4A6
:10172000E2C0883309F0E9C05DC0803509F45FC0CC
:10173000883509F44AC0883409F0DFC0D4C088393C
:1017400009F485C08939B0F4883709F467C089374E
:1017500038F4883609F462C0803709F0CEC05EC024
:10176000883809F474C0803909F461C0803809F000
:10177000C4C05DC0803B09F481C0813B38F4803A2D
:1017800009F469C0883A09F0B8C078C0803C09F40F
:10179000A5C0883C09F4A2C0883B09F0AEC082C055
:1017A000809134020FC09091550280915602981793
:1017B00008F099C0E92FF0E0EB5CFD4F80819F5F5E
:1017C000909355028093BB0082C0809177029091E4
:1017D000BB00E82FF0E0E95AFD4F90838F5F8093C4
:1017E000770281C08091BC008F70806880C080913A
:1017F00077029091BB00E82FF0E0E95AFD4F90830B
:101800008F5F809377022091770230E08091780299
:1018100090E0019728173907C4F019C085E090E0DF
:101820009093330280933202109277024BC08091E2
:1018300077029091BB00E82FF0E0E95AFD4F9083CA
:101840008F5F80937702803210F48FEF01C080E0C9
:101850000E94A50A52C08091BC008F70806C80935A
:10186000BC00E0917902F0917A02309709F441C00E
:1018700067E572E08091770209953BC084E090E0D3
:101880009093330280933202E0917B02F0917C02CC
:10189000309731F065E372E080E20995809356025B
:1018A0001092550290915502E92FF0E0EB5CFD4F4C
:1018B00080818093BB009F5F909355028091560278
:1018C000981728F48091BC008F70806C04C08091C0
:1018D000BC008F7080688093BC000FC08091BC00FA
:1018E0008F70806C04C08091BC008F70806D80937D
:1018F000BC001092330210923202FF91EF91BF911F
:10190000AF919F918F917F916F915F914F913F9197
:101910002F910F900FBE0F901F9018951F93CF938C
:10192000DF93982F162FEA018091BC008E7F809361
:10193000BC008091BC008F70806A8093BC00809155
:10194000BC0087FFFCCF91609093BB008091BC00EE
:101950008F7080688093BC008091BC0087FFFCCFB3
:101960008091B900803469F091E018C08FEF0E9437
:10197000A50A8091BC0087FFFCCF8091BB008993B2
:101980001150123098F780E00E94A50A8091BC00A7
:1019900087FFFCCF8091BB00888390E08091BC00E2
:1019A0008F70806D8093BC008091BC0081608093BB
:1019B000BC00892F90E0DF91CF911F910895EAE755
:1019C000F0E08081877F808380818F778083089596
:1019D000EAE7F0E09081987F982B90830895ECE7F8
:1019E000F0E090818295880F880F807C9F73982B00
:1019F00090830895ECE7F0E090818F71907E892BC1
:101A000080830895EAE7F0E08081806180838081AF
:101A100080648083089580917A0090E08074907053
:101A200008951092470490917C008F71907E892BCD
:101A300080937C0080917A00806180937A0080910D
:101A40007A00806480937A0080917A0086FDFCCFD2
:101A5000209178008091790090E0982F882730E0DD
:101A6000822B932B08950E94110D9695879596953C
:101A7000879590E008951F920F920FB60F92112450
:101A80008F938FEF809347048F910F900FBE0F902D
:101A90001F9018950F931F930AE710E0F8018081BB
:101AA0008068808380818F7D80838081887F86604D
:101AB000808381E00E94EF0CECE7F0E080818F7D75
:101AC0008083F80180818860808310924704789435
:101AD0001F910F910895629FD001739FF001829F23
:101AE000E00DF11D649FE00DF11D929FF00D839FAD
:101AF000F00D749FF00D659FF00D9927729FB00D4A
:101B0000E11DF91F639FB00DE11DF91FBD01CF015C
:101B100011240895AA1BBB1B51E107C0AA1FBB1FBC
:101B2000A617B70710F0A61BB70B881F991F5A9569
:101B3000A9F780959095BC01CD01089597FB092EDA
:101B400007260AD077FD04D0E5DF06D000201AF47E
:101B5000709561957F4F0895F6F7909581959F4F09
:101B60000895A1E21A2EAA1BBB1BFD010DC0AA1FDE
:101B7000BB1FEE1FFF1FA217B307E407F50720F0F6
:101B8000A21BB30BE40BF50B661F771F881F991F71
:101B90001A9469F760957095809590959B01AC01BA
:101BA000BD01CF01089597FB092E05260ED057FDE4
:101BB00004D0D7DF0AD0001C38F4509540953095FA
:101BC00021953F4F4F4F5F4F0895F6F790958095C1
:0E1BD000709561957F4F8F4F9F4F0895FFCF07
:00000001FF
